:100000000C940A010C9432010C9432010C943201CC
:100010000C9432010C9432010C9432010C94320194
:100020000C9432010C94C8020C9432010C94240DEF
:100030000C946B0B0C9432010C9432010C94320131
:100040000C942E0E0C9432010C942D110C945F1113
:100050000C9432010C9432010C9432010C94320154
:100060000C9432010C9432014E6F74206120766141
:100070006C69642057415600436F756C646E277439
:10008000206F70656E2066696C6520005265616442
:1000900079210043616E2774206F70656E20726F46
:1000A0006F742064697221002C2074797065206956
:1000B0007320464154005573696E672070617274F5
:1000C0006974696F6E20004E6F2076616C696420E0
:1000D00046415420706172746974696F6E210043E7
:1000E00061726420696E69742E206661696C656452
:1000F0002100467265652052414D3A2000627574B8
:10010000746F6E7300576176654843207769746831
:1001100020002C20000A0D534420492F4F206572E7
:10012000726F723A200048696768207261746520B6
:10013000667261676D656E7465642066696C6521C1
:100140000053616D706C65207261746520746F6F0F
:10015000206869676821004D6F7265207468616E60
:100160002031362062697473207065722073616D6E
:10017000706C652100205761726E696E6720737420
:100180006572656F2066696C6521004E6F74206D25
:100190006F6E6F2F73746572656F2100436F6D70A2
:1001A00072657373696F6E206E6F742073757070F3
:1001B0006F72746564000000000800020100000313
:1001C00004070000000000000000010204081020E5
:1001D00040800102040810200102040810200404D9
:1001E00004040404040402020202020203030303DF
:1001F0000303000000002300260029000000000087
:10020000250028002B0000000000240027002A0001
:10021000B9038F1111241FBECFEFD8E0DEBFCDBFD1
:1002200011E0A0E0B1E0E2E2F7E202C005900D9239
:10023000AA37B107D9F726E0AAE7B1E001C01D92BD
:10024000A33BB207E1F712E0C4E1D2E004C0229779
:10025000FE010E945B13C031D107C9F70E941C1335
:100260000C948F130C940000CF93DF9300D0CDB784
:10027000DEB78091AF069091B0069E012F5F3F4F91
:10028000009719F4235B364002C0281B390B3A83D0
:10029000298389819A810F900F90DF91CF910895E2
:1002A0008091F6018823C9F085E191E00E94180E43
:1002B00040E150E06091F60182E196E00E94F71281
:1002C00082E191E00E94180E40E150E06091F70158
:1002D00082E196E00E94FE12FFCF08950F931F93D4
:1002E000CF93DF9326E040E855E260E070E082E1E2
:1002F00096E00E94CB1085E091E00E94280E4AE033
:1003000050E066E070E082E196E00E9415138DEF08
:1003100090E00E94280E82EF90E00E94180E0E944A
:1003200034014AE050E0BC0182E196E00E94D21222
:1003300061E082E00E94500F61E083E00E94500F74
:1003400061E084E00E94500F61E085E00E94500F60
:1003500061E087E00E94500FC7E0D1E08E0160E0CD
:1003600089910E94500F61E0F80180810E94890FFD
:10037000F1E0CD30DF0791F760E082EF91E00E947D
:100380006A09811165C08FED90E00E94280E61E03E
:1003900087E00E94890F64EF71E080E090E00E94A6
:1003A000A70E60E087E00E94890F64EF71E080E0B3
:1003B00090E00E94A70E61E087E00E94890F64EF41
:1003C00071E080E090E00E94A70E60E087E00E946C
:1003D000890F64EF71E080E090E00E94A70E61E079
:1003E00087E00E94890F64EF71E080E090E00E9456
:1003F000A70E60E087E00E94890F64EF71E080E063
:1004000090E00E94A70E61E087E00E94890F64EFF0
:1004100071E080E090E00E94A70E60E087E00E941B
:10042000890F64EF71E080E090E00E94A70E61E028
:1004300087E00E94890F64EF71E080E090E00E9405
:10044000A70E60E087E00E94890F0E945001FFCF55
:1004500082EF91E00E94CF0881E08093FB01C0E031
:100460004C2F62EF71E083ED91E00E9491078111C2
:100470000AC0CF5FC530A1F787EC90E00E94280E3C
:100480000E945001FFCF86EB90E00E94180E4AE0D8
:1004900050E06C2F82E196E00E94F71288EA90E02B
:1004A0000E94180E4AE050E06091E50182E196E07A
:1004B0000E94FE1263ED71E080EC91E00E9447071C
:1004C000811105C083E990E00E94280EFFCF8CE8DF
:1004D00090E00E94280E1092B00087E08093B10057
:1004E00080917000816080937000DF91CF911F91A7
:1004F0000F910895BF92CF92DF92EF92FF920F93E8
:100500001F93CF93DF9387E0C82E81E0D82E90E829
:10051000E92E91E0F92E0AE711E0C0E0D0E0BB241B
:10052000B394F60181916F010E94BF0FF70181938F
:100530007F01F8019081891310C0FE01EA56FE4F39
:10054000908191111BC0811119C0DE01A057BE4FCF
:10055000BC9291E0811190E09083F80181938F012A
:100560002196C630D105E9F6DF91CF911F910F9109
:10057000FF90EF90DF90CF90BF90089590819130E1
:1005800041F7813031F7DE01A657BE4F8C93E1CFA2
:100590001F920F920FB60F9211242F933F934F93F8
:1005A0005F936F937F938F939F93AF93BF93EF93DB
:1005B000FF930E947A02FF91EF91BF91AF919F91BB
:1005C0008F917F916F915F914F913F912F910F90FC
:1005D0000FBE0F901F901895CF93DF93EC01809181
:1005E000A601882321F08CE991E00E94150DAE014F
:1005F00060EC71E08DEA91E00E94F30681110BC07E
:1006000088E790E00E94180EBE0182E196E0DF913B
:10061000CF910C9410126DEA71E08CE991E00E9488
:10062000BA0B811106C088E690E0DF91CF910C945F
:10063000280E8CE991E0DF91CF910C94B20C61E02F
:1006400087E00E94890F80E00E940A0F9093890141
:10065000809388018C3C9105B0F480918601909143
:100660008701019709F47DC080910601813009F46A
:1006700078C081E0809306018EE091E00E94EC0258
:100680006EE071E06AC09C012C5C31092C3C3105A4
:10069000B0F48091860190918701029709F461C0BE
:1006A00080910601823009F45CC082E080930601EB
:1006B00089E191E00E94EC0269E171E04EC09C0189
:1006C000285931402B3C3105B0F48091860190913E
:1006D0008701039709F445C080910601833009F42E
:1006E00040C083E08093060184E291E00E94EC0226
:1006F00064E271E032C09C01225632402D3C31054B
:10070000A0F48091860190918701049751F1809126
:100710000601843031F184E0809306018FE291E09C
:100720000E94EC026FE271E018C08E529340833D4C
:100730009105B8F48091860190918701059789F021
:1007400080910601853069F085E0809306018AE397
:1007500091E00E94EC026AE371E082E196E00E947F
:100760001D128091A601811103C08FEF80930601B5
:1007700008951092F6011092F8011092FB01109268
:10078000FD011092E5011092C0011092AD018CE9BB
:1007900091E00C94D10A30E020E04EE2DC015C9163
:1007A000503271F0383029F4FB01E20FF11D408323
:1007B0002F5FFB01E20FF11DDC015C9150832F5F85
:1007C0003F5F01963B3051F7FB01E20FF11D1082B4
:1007D0000895EF92FF920F931F93CF93DF9300D072
:1007E00000D0CDB7DEB7FC0142305105610571057F
:1007F00090F005811681278130850E5F1F4F2F4FA6
:100800003F4F401751076207730728F482898032EF
:1008100031F0803151F160E070E0CB0147C09A01C6
:10082000220F331F220F331F317017E07695679523
:10083000579547951A95D1F786859785A089B189EF
:10084000480F591F6A1F7B1F04E0E02EF12C8E0118
:100850000F5F1F4F838994890E94450A8823D9F22C
:1008600069817A818B819C8121C09A01220F331F7B
:100870003170452F562F672F772786859785A0895A
:10088000B189480F591F6A1F7B1FA2E0EA2EF12C85
:100890008E010F5F1F4F838994890E94450A882328
:1008A00009F4B9CF69817A8180E090E00F900F90D0
:1008B0000F900F90DF91CF911F910F91FF90EF90CC
:1008C00008952F923F924F925F926F927F928F92F4
:1008D0009F92AF92BF92CF92DF92EF92FF920F93CF
:1008E0001F93CF93DF93DC011B0119968D909D9090
:1008F000AD90BC901C97640181E0D82280E092E02A
:100900008C199D09EA018417950708F4EC011196EA
:100910004D915D916D917C9114978E0120E030E0B6
:100920002A013B01481859086A087B0840165106FD
:100930006206730618F4EA01C819D9098C91877008
:1009400099E0B694A794979487949A95D1F7519685
:10095000ED91FC915297823049F44789508D618D19
:10096000728D480D591D6A1D7B1D28C0F08015969B
:100970002D913D914D915C9118972250310941097B
:100980005109AF2DB0E00E944E13AB01BC0181852F
:100990009285A385B485480F591F6A1F7B1F8F2D31
:1009A00090E00197AA2797FDA095BA2F8821992159
:1009B000AA21BB21480F591F6A1F7B1F7E0181019D
:1009C0009601838994890E94450A882311F0CE01FB
:1009D00002C08FEF9FEFDF91CF911F910F91FF909A
:1009E000EF90DF90CF90BF90AF909F908F907F90CF
:1009F0006F905F904F903F902F9008954F925F922D
:100A00006F927F928F929F92AF92BF92CF92DF921E
:100A1000EF92FF920F931F93CF93DF9300D000D0FC
:100A2000CDB7DEB78C016A017B01DC0119968D918F
:100A30009D910D90BC91A02D89839A83AB83BC833B
:100A4000C80ED91EEA1EFB1EF80141815281638146
:100A500074814C155D056E057F0510F480E066C05D
:100A60000188F289E02D4080512C612C712CC70146
:100A7000B60129E096958795779567952A95D1F7E0
:100A8000A30192010E942C1349015A0169817A81C4
:100A90008B819C8139E096958795779567953A95F6
:100AA000D1F7A30192010E942C13821A930AA40A7F
:100AB000B50AF801C186D286E386F4868081982F34
:100AC0009770923079F083FF2BC045815681678102
:100AD0007085480D591D6A1D7B1DF801458356839D
:100AE0006783708781E022C0D80115964D915D9192
:100AF0006D917C91189751968D919C9152970E947F
:100B0000E903F8016583768387839087F1E08F1A84
:100B10009108A108B108672B682B692B09F49ECFB7
:100B200081149104A104B104F9F6DCCF0F900F9069
:100B30000F900F90DF91CF911F910F91FF90EF9049
:100B4000DF90CF90BF90AF909F908F907F906F90ED
:100B50005F904F900895AF92BF92CF92DF92EF9245
:100B6000FF920F931F93CF93DF936C017B015A0188
:100B7000C0E0D0E0CA15DB0568F4A5014C1B5D0B95
:100B8000B701C6010E9461048C01181619063CF0D9
:100B900097FD02C0CE0112C08FEF9FEF0FC0AC01D6
:100BA000662757FD6095762FC6010E94FE048823B4
:100BB00099F3E00EF11EC00FD11FDCCFDF91CF9172
:100BC0001F910F91FF90EF90DF90CF90BF90AF906B
:100BD00008950F931F93CF93DF938C01EB01FC01DA
:100BE00080818770823060F040E250E0BE01C80131
:100BF0000E94AB05803279F49881911103C00BC03B
:100C00008FEF0CC0953E81F39E3271F38B8583FD8F
:100C1000EBCF80E203C018160CF480E0DF91CF9197
:100C20001F910F910895CF92DF92EF92FF92CF9391
:100C3000DF93EC016A017B01B701A601CE010E949E
:100C4000E903611571058105910529F12FEFC21A9C
:100C5000D20AE20AF20A6C157D058E059F05C1F0E5
:100C60002A89203139F458EFC52EDD24DA94E12C9D
:100C7000F12C07C048EFC42EDD24DA94ED2C4FE0B0
:100C8000F42E21E06C157D058E059F0528F403C028
:100C90006B017C01D1CF20E0822FDF91CF91FF90BB
:100CA000EF90DF90CF900895CF93DF93EC01888190
:100CB000877091F04D855E856F8578894115510566
:100CC0006105710549F089899A890E941306882374
:100CD00019F0888188608883DF91CF910895CF9241
:100CE000DF92EF92FF920F931F93CF93DF93EC016C
:100CF000C12CD12C7601CE010E94E903AB01BC01CD
:100D0000411551056105710571F0088110E0102F42
:100D10000027110F222717FD2095322FC00ED11E5C
:100D2000E21EF31EE8CFC701B601DF91CF911F91FC
:100D30000F91FF90EF90DF90CF9008950F931F9346
:100D4000CF93DF93EC018B01FA01DB0152968C917A
:100D5000803108F442C08081882309F43EC0853E7A
:100D6000E1F14489558960E070E0BA0155274427D4
:100D7000828D938DA0E0B0E0482B592B6A2B7B2B02
:100D80004D875E876F87788B8385887159F481E002
:100D90008883848D958DA68DB78D89839A83AB8347
:100DA000BC830BC08031C9F484E08883C8010E94F1
:100DB0006F0669837A838B839C831A8B098B4D859D
:100DC0005E856F8578894D835E836F83788719860A
:100DD0001A861B861C8681E001C080E0DF91CF91DE
:100DE0001F910F910895AF92BF92CF92DF92EF9231
:100DF000FF920F931F93CF93DF93CDB7DEB7AD97DD
:100E00000FB6F894DEBF0FBECDBF6C017B015A0157
:100E1000FB01058516852785308905831683278381
:100E200030871186128613861486BE016F5F7F4F4E
:100E3000C7010E94E9051816C4F4BE016F5D7F4F1B
:100E4000CE0101960E94CB03B501CE0181960E948E
:100E50006E13892B51F7F70161897289AE014F5FDB
:100E60005F4FC6010E949E0601C080E0AD960FB69E
:100E7000F894DEBF0FBECDBFDF91CF911F910F91D0
:100E8000FF90EF90DF90CF90BF90AF9008950F93B9
:100E90001F93CF93DF93EC018B01FB01828980319B
:100EA000B1F482E088831D861E861F86188A4589D4
:100EB000568960E070E085E0440F551F661F771F7C
:100EC0008A95D1F749835A836B837C8314C080321F
:100ED00011F583E08883FB014789508D618D728D08
:100EE0004D875E876F87788BC8010E946F06698384
:100EF0007A838B839C831A8B098B8D859E85AF8526
:100F0000B8898D839E83AF83B88719861A861B861E
:100F10001C8681E001C080E0DF91CF911F910F918D
:100F200008954F925F926F927F928F929F92AF92AD
:100F3000BF92CF92DF92EF92FF920F931F93CF93C6
:100F4000DF93CDB7DEB7A5970FB6F894DEBF0FBE1F
:100F5000CDBF6C01CB01D60154967C936E93539711
:100F6000442369F1453010F080E0F1C0B0E14B9FBF
:100F70009001112422553E4F50E1E52EF12C8E01B7
:100F80000F5F1F4F40E050E0BA010E94450A8823DE
:100F900059F389818F7741F78D859E85AF85B88913
:100FA00084369105A105B105F8F289849A84AB8451
:100FB000BC8481149104A104B10421F4D5CF812C07
:100FC000912C540145E2E42EF12C8E010F5F1F4F4E
:100FD0002BE030E0B501A401F601838994890E94D9
:100FE000450A882309F4C0CF89819A8181159240EE
:100FF00009F0BACF6E81662309F4B6CF8C819D814A
:10100000009709F4B1CF1B81112309F4ADCF412F13
:1010100050E09A012150310924233523232B09F074
:10102000A3CFD6011D966C931D971C932C853D85EF
:101030002115310519F040E050E004C02A8D3B8DA8
:101040004C8D5D8DF6012183328343835483EF8180
:10105000F885D6015696FC93EE93559724013501F9
:10106000480E591E611C711C1E964D925D926D9228
:101070007C925197A62FB0E00E944E13640D751D0F
:10108000861D971DD60157966D937D938D939C93E6
:101090005A9725E0EE0FFF1F2A95E1F7E150FE4F2A
:1010A000EF2FFF27E695DC01CB018E0F9F1FA11DBF
:1010B000B11DF60181879287A387B48749845A843A
:1010C0004114510419F0612C712C04C04E885F88C2
:1010D000688C798CF601438E548E658E768EA501D0
:1010E0009401281B390B4A0B5B0BCA01B901640D33
:1010F000751D861D971D212F30E040E050E00E94B5
:101100002C13D60115962D933D934D935C93189710
:10111000253FBFE03B074105510518F48CE0F6017F
:1011200014C0253F3F4F4105510528F480E1D60109
:1011300052968C930BC08AA19BA1ACA1BDA1F601D4
:10114000878B908FA18FB28F80E2828B81E0A596F2
:101150000FB6F894DEBF0FBECDBFDF91CF911F91C8
:101160000F91FF90EF90DF90CF90BF90AF909F9046
:101170008F907F906F905F904F9008958EBD0DB4CB
:1011800007FEFDCF08958FEF0E94BE088EB508952B
:1011900061E08AE00E94890F8FEF0C94BE08CF9324
:1011A000DF93EC018E818823C1F08FEF8EBD4FEF6E
:1011B0008F8198859C012F5F3F4F38872F83813027
:1011C000924028F40DB407FEFDCF4EBDF1CF0DB413
:1011D00007FEFDCF0E94C8081E82DF91CF910895BF
:1011E0000F931F93CF93DF93EB010E94780E8B0137
:1011F0000E94C3088F3F49F00E94780E601B710B5C
:10120000C617D707A8F780E001C081E0DF91CF9132
:101210001F910F910895EF92FF921F93CF93DF9349
:1012200000D000D0CDB7DEB77C01162F29833A83DA
:101230004B835C830E94CF0860E08AE00E94890FA4
:101240006CE271E0C7010E94F008812F80640E9467
:10125000BE0888E1E82EF12C5C814B813A8129811E
:10126000DA01C9010E2C04C0B695A795979587950C
:101270000A94D2F729833A834B835C830E94BE0889
:1012800068E0E61AF10829813A814B815C8188EF98
:10129000E8168FEFF80621F7112321F0183021F01E
:1012A0008FEF03C085E901C087E80E94BE0810E007
:1012B0000E94C30887FF04C01F3F11F01F5FF8CFD3
:1012C0000F900F900F900F90DF91CF911F91FF9093
:1012D000EF900895EF92FF920F931F93CF93DF93B8
:1012E000EC01E62E61E08AE00E94500F61E08AE0A6
:1012F0000E94890F61E08BE00E94500F60E08CE05B
:101300000E94500F61E08DE00E94500F82E58CBD7D
:101310009AE0F92E8FEF0E94BE08FA94D9F760E0A8
:101320008AE00E94890F01E012E00E94C308015088
:101330001109D9F70BE020E030E0A90160E0CE010F
:101340000E940B09182F813039F00150A1F781E07C
:101350008C831D83F12C6EC02AEA31E040E050E01E
:1013600068E0CE010E940B09813089F40E94C30815
:101370000E94C3080E94C3080E94C3088A3A21F051
:1013800099E09C838D8356C082E08B8707C082FFE3
:1013900002C01B8703C092E09C838D830E94780E5D
:1013A0008B0120E030E0A90167E3CE010E940B0928
:1013B0008B85823029F420E030E040E050E403C027
:1013C00020E030E0A90169E2CE010E940B098823E8
:1013D00049F00E94780E601B710B613D774008F365
:1013E00086E00DC08B858230C9F420E030E0A90191
:1013F0006AE3CE010E940B09882319F085E08C83F3
:1014000019C00E94C308807C803C11F483E08B8764
:101410000E94C3080E94C3080E94C3088CB58C7F39
:101420008CBDE11003C08DB581608DBD0E94C808E0
:10143000FF24F3948F2DDF91CF911F910F91FF9097
:10144000EF9008950F931F93CF93DF93EC010E94C9
:10145000780E8B010E94C3088F3F51F40E94780ED2
:10146000601B710B6D327140A8F38DE08C8305C059
:101470008E3F29F090E19C838D8380E001C081E064
:10148000DF91CF911F910F910895CF92DF92EF924C
:10149000FF920F931F93CF93DF93EC016901E11447
:1014A000F10409F474C0C701820F931F8130924088
:1014B00048F58E81882371F088819981AA81BB814A
:1014C000481759076A077B0729F48F819885C81642
:1014D000D90618F5488359836A837B838B858330CB
:1014E00039F029E0440F551F661F771F2A95D1F761
:1014F0009A01AB0161E1CE010E940B09882321F022
:1015000083E08C8380E044C0CE010E94220A8823BD
:10151000C9F318861F8281E08E838FEF8EBD2FEF77
:101520008F8198858C159D0550F40DB407FEFDCF75
:101530002EBD8F819885019698878F83F1CFC70143
:101540000197F8014FEF9F01201B310B2817390736
:1015500038F40DB407FEFDCF2EB521934EBDF3CF69
:101560000DB407FEFDCF2EB5F801E80FF91F20835B
:101570008F8198858E0D9F1D98878F8329852223C3
:1015800019F08115924018F0CE010E94CF0881E039
:10159000DF91CF911F910F91FF90EF90DF90CF904F
:1015A0000895FC01108A178608954F925F926F92FA
:1015B0007F928F929F92AF92BF92EF92FF920F9382
:1015C0001F93CF93DF93CDB7DEB728970FB6F8946C
:1015D000DEBF0FBECDBF8C017B015A01FC018681AD
:1015E0009781A085B185892B8A2B8B2B51F548E0FB
:1015F00050E0BE016F5F7F4FF801878590890E94A0
:10160000AB05089719F08FEF9FEF50C044E050E012
:1016100065E471E0CE0101960E9481134D815E81E7
:101620006F817885F801892B29F446835783608779
:10163000718707C0878590890E94FE048111D7CFEA
:10164000E2CFF80187859089FC01218532853170D0
:1016500040E052E0421B530BA416B50608F4A50166
:10166000F80186809780A084B1842A01612C712CB6
:1016700084149504A604B70408F4A401B7010E94D9
:10168000AB051816190694F4F80146815781608558
:1016900071854C01AA2497FCA094BA2C48195909C9
:1016A0006A097B09468357836087718728960FB63E
:1016B000F894DEBF0FBECDBFDF91CF911F910F9188
:1016C000FF90EF90BF90AF909F908F907F906F9022
:1016D0005F904F9008951F920F920FB60F921124B2
:1016E0002F933F934F935F936F937F938F939F932A
:1016F000AF93BF93EF93FF9380916F008B7F8093A5
:101700006F008091FE01823021F578946091010292
:101710007091020240E052E0809107069091080625
:101720000E94D50AF8942091010230910202181605
:10173000190644F4280F391F309300022093FF014B
:1017400081E005C0309300022093FF0183E0809385
:10175000FE01FF91EF91BF91AF919F918F917F918A
:101760006F915F914F913F912F910F900FBE0F900E
:101770001F9018958F929F92AF92BF92CF92DF9257
:10178000EF92FF920F931F93CF93DF93CDB7DEB706
:1017900062970FB6F894DEBF0FBECDBF8C015B0120
:1017A000CB010E9454064CE050E0BE016F5F7F4FBA
:1017B000C5010E94AB050C9741F544E050E06AE496
:1017C00071E0CE0101960E948113892BF1F444E06F
:1017D00050E06FE471E0CE0109960E948113892BDD
:1017E000A1F448E050E0BE016F5F7F4FC5010E9449
:1017F000AB05089751F444E050E064E571E0CE0198
:1018000001960E948113892B11F0F12C97C0CD8095
:10181000DE80EF80F8844601C6018D7F409759F441
:10182000A601BE016F5F7F4FC5010E94AB058C15FD
:101830009D0559F702C01A82198289819A81019700
:1018400041F422E18216910439F489899A89892B1D
:1018500019F08CE991E007C08B81D8018C9383301B
:1018600028F08BE891E00E94280ECFCF823021F43F
:1018700085E791E00E94280EEF85D8011596EC933C
:10188000E13118F087E591E0EECF2D813E814F8167
:101890005885D80111962D933D934D935C931497E1
:1018A0008C91A82FB0E00E944E136B017C01AE2FEB
:1018B000B0E09B01AC010E944E1323E09695879502
:1018C000779567952A95D1F7B5E4CB16BCEADB0688
:1018D000E104F10438F46938E8E57E07E1E08E07B9
:1018E000910518F081E491E0BECF65347C4A810512
:1018F000910560F0D5018C91B82FB870FB2E83FD57
:1019000005C086E291E00E94280E18C0F801B08A56
:10191000A786138614861586168612861682178267
:101920001086118640E050E060E070E0C8010E943F
:10193000D50AF92EF094FF1CFF24FF1C8F2D629610
:101940000FB6F894DEBF0FBECDBFDF91CF911F91D0
:101950000F91FF90EF90DF90CF90BF90AF909F904E
:101960008F900895CF93DF93EC01909308068093B6
:10197000070640E052E067E074E00E94D50A1816BE
:1019800019060CF04FC027E034E030930402209396
:101990000302895F9B4F909306028093050240E00B
:1019A00052E067E072E0CE010E94D50A97FD3AC08E
:1019B00027E032E03093020220930102895F9D4FBD
:1019C000909300028093FF0181E08093FE018A875B
:1019D000529A539A549A5A9A559A5D981092800046
:1019E00089E080938100A88129813A814B815C81C3
:1019F000B0E00E944E139B01AC0160E074E284EF02
:101A000090E00E942C13309389002093880081E09D
:101A100090E090938B0080938A0080916F008260A9
:101A200080936F00DF91CF910895EFE6F0E0808121
:101A30008D7F8083E0910706F09108061286109250
:101A400008061092070608951F920F920FB60F9284
:101A500011242F933F934F935F936F937F938F93B3
:101A60009F93AF93BF93EF93FF93E0910706F0919D
:101A70000806309709F4CBC020910302309104028C
:101A800080910502909106022817390708F445C095
:101A90008091FE01813029F580910102909102022E
:101AA00090930402809303022091FF013091000281
:101AB00030930602209305028750944019F087E086
:101AC00094E002C087E092E09093020280930102CA
:101AD00082E08093FE0180916F00846080936F00AC
:101AE0001CC0833021F4CF010E94150D90C04681A7
:101AF000578160857185452B462B472B09F487C09C
:101B000043855485658576854F5F5F4F6F4F7F4F67
:101B100043875487658776877AC0E0910706F091FE
:101B200008068581E0910302F0910402803149F4B6
:101B30008181805890813296F0930402E0930302F1
:101B400006C08191F0930402E093030290E05A985A
:101B50005C985B9A5B985B9A5B985C9A5B9A5B98E3
:101B60005B9A5B9887FF02C05C9A01C05C985B9AA5
:101B70005B9886FF02C05C9A01C05C985B9A5B9898
:101B800085FF02C05C9A01C05C985B9A5B9884FFF9
:101B900002C05C9A01C05C985B9A5B9883FF02C0AC
:101BA0005C9A01C05C985B9A5B9882FF02C05C9A69
:101BB00001C05C985B9A5B9881FF02C05C9A01C08F
:101BC0005C985B9A5B9880FF02C05C9A01C05C984D
:101BD0005B9A5B9897FF02C05C9A01C05C985B9A25
:101BE0005B9896FF02C05C9A01C05C985B9A5B9818
:101BF00095FF02C05C9A01C05C985B9A5B9894FF69
:101C000002C05C9A01C05C985B9A5B985A9AFF91FB
:101C1000EF91BF91AF919F918F917F916F915F9164
:101C20004F913F912F910F900FBE0F901F901895DD
:101C3000CF93DF93EC01FE016491662331F082E1E2
:101C400096E00E9466102196F6CFDF91CF9108951D
:101C50000E94180E82E196E00C9419121F920F92C6
:101C60000FB60F9211242F933F938F939F93AF93AF
:101C7000BF9380910A0690910B06A0910C06B0913B
:101C80000D063091090623E0230F2D3720F401962D
:101C9000A11DB11D05C026E8230F0296A11DB11D8F
:101CA0002093090680930A0690930B06A0930C06D6
:101CB000B0930D0680910E0690910F06A09110062C
:101CC000B09111060196A11DB11D80930E0690934F
:101CD0000F06A0931006B0931106BF91AF919F918C
:101CE0008F913F912F910F900FBE0F901F901895DD
:101CF0002FB7F89460910A0670910B0680910C063C
:101D000090910D062FBF08953FB7F89480910E066D
:101D100090910F06A0911006B091110626B5A89BD0
:101D200005C02F3F19F00196A11DB11D3FBF6627C9
:101D3000782F892F9A2F620F711D811D911D42E00E
:101D4000660F771F881F991F4A95D1F70895CF9284
:101D5000DF92EF92FF92CF93DF936B017C010E94A1
:101D6000840EEB01C114D104E104F10489F00E9456
:101D70002B130E94840E6C1B7D0B683E734090F306
:101D800081E0C81AD108E108F108C851DC4FEACF58
:101D9000DF91CF91FF90EF90DF90CF9008957894EE
:101DA00084B5826084BD84B5816084BD85B5826060
:101DB00085BD85B5816085BDEEE6F0E080818160FE
:101DC0008083E1E8F0E010828081826080838081FE
:101DD00081608083E0E8F0E0808181608083E1EBD6
:101DE000F0E0808184608083E0EBF0E080818160BE
:101DF0008083EAE7F0E08081846080838081826074
:101E0000808380818160808380818068808310925C
:101E1000C10008958E3008F08E50877020910D011A
:101E200090E4299F90011124822B80937C00809163
:101E30007A00806480937A0080917A0086FDFCCFDE
:101E4000809178002091790090E0922B0895833062
:101E500081F028F4813099F08230A1F00895873024
:101E6000A9F08830B9F08430D1F4809180008F7D62
:101E700003C0809180008F7780938000089584B59F
:101E80008F7702C084B58F7D84BD08958091B000A6
:101E90008F7703C08091B0008F7D8093B00008954C
:101EA000CF93DF9390E0FC01E653FE4F2491FC01B9
:101EB000E252FE4F8491882349F190E0880F991FE8
:101EC000FC01EA5FFD4FA591B49184509E4FFC0147
:101ED000C591D4919FB7611108C0F8948C91209559
:101EE00082238C93888182230AC0623051F4F89453
:101EF0008C91322F309583238C938881822B888319
:101F000004C0F8948C91822B8C939FBFDF91CF916A
:101F100008950F931F93CF93DF931F92CDB7DEB732
:101F2000282F30E0F901EA54FE4F8491F901E6537D
:101F3000FE4F1491F901E252FE4F04910023C9F0C3
:101F4000882321F069830E94270F6981E02FF0E048
:101F5000EE0FFF1FE450FE4FA591B4919FB7F89488
:101F60008C91611103C01095812301C0812B8C934A
:101F70009FBF0F90DF91CF911F910F910895CF9345
:101F8000DF93282F30E0F901EA54FE4F8491F901E4
:101F9000E653FE4FD491F901E252FE4FC491CC2397
:101FA00091F081110E94270FEC2FF0E0EE0FFF1F40
:101FB000EE50FE4FA591B4912C912D2381E090E03D
:101FC00021F480E002C080E090E0DF91CF9108959D
:101FD000FC01818D228D90E0805C9F4F821B9109D6
:101FE0008F7399270895FC01918D828D981731F098
:101FF000828DE80FF11D858D90E008958FEF9FEFA2
:102000000895FC01918D828D981761F0828DDF011A
:10201000A80FB11D5D968C91928D9F5F9F73928FDB
:1020200090E008958FEF9FEF089585E891E1892B67
:1020300049F080E090E0892B29F00E948511811100
:102040000C9400000895FC01848DDF01A80FB11DE0
:10205000A35ABF4F2C91848D90E001968F739927DE
:10206000848FA689B7892C93A089B1898C918064CB
:102070008C93938D848D981306C00288F389E02D8C
:1020800080818F7D80830895CF93DF93EC01888DCD
:102090008823C9F0EA89FB89808185FD05C0A8896C
:1020A000B9898C9186FD0FC00FB607FCF5CF8081F2
:1020B00085FFF2CFA889B9898C9185FFEDCFCE013C
:1020C0000E942310E7CFDF91CF910895CF92DF9246
:1020D000FF920F931F93CF93DF931F92CDB7DEB77D
:1020E0006C0181E0D60158968C9358975B969C9131
:1020F0005B975C968C915C97981307C05096ED9116
:10210000FC915197808185FD2EC0F601038D10E072
:102110000F5F1F4F0F731127F02EF601848DF812F9
:1021200011C00FB607FCF9CFD6015096ED91FC9186
:102130005197808185FFF1CFC60169830E942310EA
:102140006981EBCF838DE80FF11DE35AFF4F608368
:10215000D6015B960C935B975296ED91FC91539749
:10216000808180620CC0D6015696ED91FC91579704
:1021700060835096ED91FC915197808180648083BB
:1021800081E090E00F90DF91CF911F910F91FF9030
:10219000DF90CF900895BF92CF92DF92EF92FF929F
:1021A000CF93DF93EC016A017B01B22EE889F989B4
:1021B00082E08083411581EE580761057105A1F029
:1021C00060E079E08DE390E0A70196010E942C1376
:1021D0002150310941095109569547953795279561
:1021E000211580E1380798F0E889F989108260E8C4
:1021F00074E88EE190E0A70196010E942C13215013
:102200003109410951095695479537952795EC8530
:10221000FD853083EE85FF852083188EEC89FD894E
:10222000B082EA89FB89808180618083EA89FB89A9
:10223000808188608083EA89FB89808180688083CF
:10224000EA89FB8980818F7D8083DF91CF91FF9028
:10225000EF90DF90CF90BF9008951F920F920FB62E
:102260000F9211242F938F939F93EF93FF93E091FD
:102270002206F09123068081E0912806F09129063C
:1022800082FD12C0908180912B068F5F8F73209109
:102290002C06821751F0E0912B06F0E0EE5EF94F2C
:1022A000958F80932B0601C08081FF91EF919F91C4
:1022B0008F912F910F900FBE0F901F9018951F9226
:1022C0000F920FB60F9211242F933F934F935F936A
:1022D0006F937F938F939F93AF93BF93EF93FF93EE
:1022E00082E196E00E942310FF91EF91BF91AF91A0
:1022F0009F918F917F916F915F914F913F912F911E
:102300000F900FBE0F901F90189582E196E00E94EB
:10231000E80F21E0892B09F420E0822F0895109224
:1023200015061092140688EE93E0A0E0B0E08093CA
:10233000160690931706A0931806B09319068DE51C
:1023400091E0909313068093120685EC90E09093B1
:102350001F0680931E0684EC90E0909321068093E4
:10236000200680EC90E0909323068093220681EC77
:1023700090E0909325068093240682EC90E0909361
:1023800027068093260686EC90E09093290680939A
:10239000280610922B0610922C0610922D061092F1
:1023A0002E060895CF92DF92EF92FF920F931F9324
:1023B000CF93DF937C016A01EB0100E010E00C1584
:1023C0001D0571F06991D701ED91FC910190F081AB
:1023D000E02DC7010995892B19F00F5F1F4FEFCF33
:1023E000C801DF91CF911F910F91FF90EF90DF9087
:1023F000CF9008956115710581F0DB010D900020EB
:10240000E9F7AD0141505109461B570BDC01ED9135
:10241000FC910280F381E02D099480E090E0089522
:102420000C94FA11DC01ED91FC910190F081E02D0A
:10243000099469E671E00C94FA110F931F93CF93FE
:10244000DF93EC010E94FA118C01CE010E94191257
:10245000800F911FDF91CF911F910F9108958F925F
:102460009F92AF92BF92CF92DF92EF92FF920F9323
:102470001F93CF93DF93CDB7DEB7A1970FB6F89434
:10248000DEBF0FBECDBF7C01C42EE52FCB01D22E07
:1024900019A221E02D1510F02AE0D22E8E010F5D39
:1024A0001F4F8D2C912CA12CB12C6C2D7E2FA501B2
:1024B00094010E942C138C2DD29E8019112401505E
:1024C00011098A3014F4805D01C0895CF8018083B1
:1024D000211531054105510521F0C22EE32FCA0116
:1024E000E4CFB801C7010E94FA11A1960FB6F89483
:1024F000DEBF0FBECDBFDF91CF911F910F91FF9037
:10250000EF90DF90CF90BF90AF909F908F90089505
:10251000CF92DF92EF92FF920F931F93CF93DF93AF
:10252000EC016A017B012115310579F4E881F9811B
:102530000190F081E02D642FDF91CF911F910F91D9
:10254000FF90EF90DF90CF9009942A303105E9F4A5
:1025500077FF1AC06DE20E9412128C0144275527A2
:10256000BA014C195D096E097F092AE0CE010E946B
:102570002F12800F911FDF91CF911F910F91FF902C
:10258000EF90DF90CF9008952AE0B701A601CE0129
:10259000DF91CF911F910F91FF90EF90DF90CF903F
:1025A0000C942F120F931F93CF93DF93EC019A019A
:1025B000AB01662757FD6095762F0E9488128C012B
:1025C000CE010E941912800F911FDF91CF911F91B0
:1025D0000F9108952115310541F4DC01ED91FC9135
:1025E0000190F081E02D642F09940C942F129A0130
:1025F000462F50E060E070E00C94EA120F931F93B6
:10260000CF93DF93EC019A01462F50E060E070E039
:102610000E94EA128C01CE010E941912800F911FB4
:10262000DF91CF911F910F9108959A01AB0160E066
:1026300070E00C94EA1208950E94CF0E0E941B13C2
:102640000E946E01C5E1D0E10E941F032097E1F3D3
:102650000E941510F9CF0895A1E21A2EAA1BBB1BE8
:10266000FD010DC0AA1FBB1FEE1FFF1FA217B3075E
:10267000E407F50720F0A21BB30BE40BF50B661F74
:10268000771F881F991F1A9469F760957095809538
:1026900090959B01AC01BD01CF0108950E945F138D
:1026A000A59F900DB49F900DA49F800D911D1124A6
:1026B0000895EE0FFF1F0590F491E02D0994A29F5D
:1026C000B001B39FC001A39F700D811D1124911D06
:1026D000B29F700D811D1124911D0895FB01DC0135
:1026E0008D9181341CF08B350CF4805E61916134E6
:1026F0001CF06B350CF4605E861B611189F3990B3D
:102700000895FB01DC014150504030F08D91019063
:10271000801919F40020B9F7881B990B0895F894D3
:02272000FFCFE9
:102722000000B3068000FF0E0F1011121301445275
:102732004F4E45312E5741560044524F4E45322E90
:102742005741560044524F4E45332E57415600448E
:10275200524F4E45342E5741560044524F4E453546
:102762002E57415600646174610052494646005733
:1027720041564500666D742000000000006610D2CC
:1027820011E80F0110F30F44100D0A006E616E0084
:0A279200696E66006F7666002E0087
:107E0000112484B714BE81FFF0D085E080938100F7
:107E100082E08093C00088E18093C10086E0809377
:107E2000C20080E18093C4008EE0C9D0259A86E02C
:107E300020E33CEF91E0309385002093840096BBD3
:107E4000B09BFECF1D9AA8958150A9F7CC24DD24C4
:107E500088248394B5E0AB2EA1E19A2EF3E0BF2EE7
:107E6000A2D0813461F49FD0082FAFD0023811F036
:107E7000013811F484E001C083E08DD089C08234E0
:107E800011F484E103C0853419F485E0A6D080C0E4
:107E9000853579F488D0E82EFF2485D0082F10E0AE
:107EA000102F00270E291F29000F111F8ED06801E7
:107EB0006FC0863521F484E090D080E0DECF843638
:107EC00009F040C070D06FD0082F6DD080E0C81688
:107ED00080E7D80618F4F601B7BEE895C0E0D1E017
:107EE00062D089930C17E1F7F0E0CF16F0E7DF06D8
:107EF00018F0F601B7BEE89568D007B600FCFDCFD4
:107F0000A601A0E0B1E02C9130E011968C91119780
:107F100090E0982F8827822B932B1296FA010C0160
:107F200087BEE89511244E5F5F4FF1E0A038BF0790
:107F300051F7F601A7BEE89507B600FCFDCF97BE46
:107F4000E89526C08437B1F42ED02DD0F82E2BD052
:107F50003CD0F601EF2C8F010F5F1F4F84911BD097
:107F6000EA94F801C1F70894C11CD11CFA94CF0C13
:107F7000D11C0EC0853739F428D08EE10CD085E9AC
:107F80000AD08FE07ACF813511F488E018D01DD067
:107F900080E101D065CF982F8091C00085FFFCCF94
:107FA0009093C60008958091C00087FFFCCF809118
:107FB000C00084FD01C0A8958091C6000895E0E648
:107FC000F0E098E1908380830895EDDF803219F02E
:107FD00088E0F5DFFFCF84E1DECF1F93182FE3DFCA
:107FE0001150E9F7F2DF1F91089580E0E8DFEE27F6
:047FF000FF270994CA
:027FFE00040479
:0400000300007E007B
:00000001FF
